:020000040000FA
:100000000C9487000C94AF000C94AF000C94AF00DC
:100010000C94AF000C94AF000C94AF000C94AF00A4
:100020000C94AF000C94AF000C94AF000C94CA0A6F
:100030000C94AF000C94AF000C94AF000C94AF0084
:100040000C94800A0C94AF000C944E0A0C94280A6D
:100050000C94AF000C94AF000C94AF000C94AF0064
:100060000C94AF000C94AF00CDCCCC3D0AD7233C10
:1000700017B7D13877CC2B329595E6241FB14F0AAC
:100080000000803FCDCCCC3D6F12833A95BFD63374
:100090007D1D9026B3CE010C000020410000C84217
:1000A00000401C4620BCBE4CCA1B0E5AAEC59D74F7
:1000B00000000000240027002A00000000002500A6
:1000C00028002B00000000080002010000030407C4
:1000D00000000000000000000000000023002600D7
:1000E00029000404040404040404020202020202BB
:1000F00003030303030301020408102040800102EC
:1001000004081020010204081020E60BE50F11245A
:100110001FBECFEFD8E0DEBFCDBF11E0A0E0B1E061
:10012000E4E4F9E202C005900D92A03FB107D9F7CF
:1001300022E0A0EFB1E001C01D92A23FB207E1F7BB
:1001400010E0C6E8D0E004C02197FE010E9494129E
:10015000C538D107C9F70E94840C0C9495140C94EF
:100160000000CF92DF92EF92FF92CF938091E10255
:100170008C3009F44FC038F48B30F1F060E070E05F
:1001800080EC9FE741C085518230C0F7C091DD020D
:100190006C2F70E0762F662766277F778091DE02CE
:1001A000682B90E080E00E94FC0F2DEC3CEC4CECC6
:1001B0005DE30E945D104AC06091DD0270E090E056
:1001C00080E00E94FC0F6B017C01C091DE02C7FF42
:1001D0000AC0AC019B0160E070E080E89FEB0E94E8
:1001E000B8116B017C01CF706C2F70E090E080E063
:1001F0000E94FE0F2DEC3CEC4CEC5DE30E945D1088
:10020000A70196010E94B911CF91FF90EF90DF9066
:10021000CF900895C091DD026C2F70E090E080E0F7
:100220000E94FC0F6B017C016091DE026F7070E038
:1002300090E080E00E94FE0F2DEC3CEC4CEC5DE386
:100240000E945D10A70196010E94B911C7FFDCCF83
:100250009058DACFCF92DF92EF92FF92CF93DF9355
:10026000B091E202A0E08111AB2F8091E30290E017
:10027000880F991FAC0148525F4FC090E802D090A0
:10028000E902E090EA02F090EB0230E020E0FA01AF
:10029000C591D491E881B90190E080E0EB23EA13A5
:1002A0000AC02F5F3F4F6C157D058E059F0578F3C3
:1002B0006FEF7FEFCB01DF91CF91FF90EF90DF9059
:1002C000CF9008950895AF92BF92CF92DF92EF92B0
:1002D000FF920F931F93CF93DF936C017B018B01F0
:1002E000040F151FEB015E01AE18BF08C017D10740
:1002F00059F06991D601ED91FC910190F081E02DCA
:10030000C6010995892B79F7C501DF91CF911F911E
:100310000F91FF90EF90DF90CF90BF90AF90089536
:10032000FC01538D448D252F30E0842F90E0821BFB
:10033000930B541710F0CF96089501970895FC0180
:10034000918D828D981761F0A28DAE0FBF2FB11DD8
:100350005D968C91928D9F5F9F73928F90E0089530
:100360008FEF9FEF0895FC01918D828D981731F0EA
:10037000828DE80FF11D858D90E008958FEF9FEF3E
:100380000895FC01918D228D892F90E0805C9F4F14
:10039000821B91098F73992708958FE292E00E9442
:1003A000C10121E0892B09F420E0822F089580E02B
:1003B00090E0892B29F00E94CD0181110C9400005E
:1003C0000895FC01A48DA80FB92FB11DA35ABF4FEA
:1003D0002C91848D90E001968F739927848FA68944
:1003E000B7892C93A089B1898C91837080648C9398
:1003F000938D848D981306C00288F389E02D808147
:100400008F7D80830895EF92FF920F931F93CF9378
:10041000DF93EC0181E0888F9B8D8C8D98131AC03F
:10042000E889F989808185FF15C09FB7F894EE8926
:10043000FF896083E889F989808183708064808383
:100440009FBF81E090E0DF91CF911F910F91FF90CE
:10045000EF900895F62E0B8D10E00F5F1F4F0F7376
:100460001127E02E8C8D8E110CC00FB607FCFACF31
:10047000E889F989808185FFF5CFCE010E94E101ED
:10048000F1CFEB8DEC0FFD2FF11DE35AFF4FF08202
:100490009FB7F8940B8FEA89FB8980818062CFCF68
:1004A000CF93DF93EC01888D8823B9F0AA89BB89AB
:1004B000E889F9898C9185FD03C0808186FD0DC096
:1004C0000FB607FCF7CF8C9185FFF2CF808185FFB7
:1004D000EDCFCE010E94E101E9CFDF91CF910895E8
:1004E00090E0FC01EC53FF4F2491FC01EA50FF4FD8
:1004F0003491FC01EE51FF4FE491EE23C9F0222329
:1005000039F0233001F1A8F4213019F1223029F11A
:10051000F0E0EE0FFF1FE654FF4FA591B4918FB7A7
:10052000F894EC91611126C030953E233C938FBF27
:1005300008952730A9F02830C9F0243049F7809178
:1005400080008F7D03C0809180008F778093800032
:10055000DFCF84B58F7784BDDBCF84B58F7DFBCFB4
:100560008091B0008F778093B000D2CF8091B0009F
:100570008F7DF9CF3E2BDACFCF93DF9390E0FC0154
:10058000EA50FF4F24918E519F4FFC0184918823A4
:10059000C9F090E0880F991FFC01E055FF4FA5912D
:1005A000B491FC01E654FF4FC591D49161110DC087
:1005B0009FB7F8948C91209582238C93888128236F
:1005C00028839FBFDF91CF910895623051F49FB788
:1005D000F8943C91822F809583238C93E8812E2B75
:1005E000EFCF8FB7F894EC912E2B2C938FBFEACFDF
:1005F0003FB7F89480911B0290911C02A0911D02BC
:10060000B0911E0226B5A89B05C02F3F19F0019698
:10061000A11DB11D3FBFBA2FA92F982F8827BC015C
:10062000CD01620F711D811D911D42E0660F771F84
:10063000881F991F4A95D1F708958F929F92AF9284
:10064000BF92CF92DF92EF92FF924B015C010E942A
:10065000F8026B017C010E94F8026C197D098E0979
:100660009F09683E734081059105A8F321E0821A35
:100670009108A108B10888EEC80E83E0D81EE11CDD
:10068000F11C81149104A104B10429F7FF90EF90AB
:10069000DF90CF90BF90AF909F908F9008952FB72D
:1006A000F89460911702709118028091190290914C
:1006B0001A022FBF0895CF92DF92EF92FF920F930D
:1006C0001F93CF93DF93CDB7DEB7C054D1400FB6A1
:1006D000F894DEBF0FBECDBF0E944F030091E4022D
:1006E0001091E5022091E6023091E7026B017C0156
:1006F000C01AD10AE20AF30A97018601003D1740A9
:100700002105310590F48091EC02C05CDE4F0FB6FC
:10071000F894DEBF0FBECDBFDF91CF911F910F9137
:10072000FF90EF90DF90CF9008956093E402709374
:10073000E5028093E6029093E7021092DF021092A6
:10074000DE021092DD021092DC021092DB0262E007
:100750008091E0020E94BC0261E070E080E090E0E5
:100760000E941D0361E08091E0020E94BC0260E0F3
:100770008091E0020E9470028091E10285518230F6
:1007800020F58BE291E10197F1F762E08091E002C0
:100790000E94BC028091ED0290E08230910538F019
:1007A000880F991F880F991F05970197F1F7F89403
:1007B00080E00E942A016F3F7F4F8F4F9F4F61F46F
:1007C0001092EC02789480E0A0CF64E170E080E0C9
:1007D00090E00E941D03D9CF81E00E942A016F3F63
:1007E0007F4F8F4F9F4F61F38E010F5F1F4F6E0141
:1007F0002FEBC21A2EEFD20A780180E00E942A0164
:10080000F701608371838283938381E00E942A01D0
:10081000F7016483758386839783F8E0EF0EF11CFC
:10082000EC14FD0451F7789430E020E0F801C0802A
:10083000D180E280F3804481558166817781FFEF2A
:10084000CF16DF06EF06FF0631F04F3F8FEF580758
:100850006807780719F41092EC02B5CFF90183E02C
:10086000F595E7958A95E1F7E552FD4F8081880F70
:10087000C416D506E606F70610F180832F5F3F4FBA
:10088000085F1F4F2832310589F64091DF02209121
:10089000DB028091DC02280F3327331F8091DD02B9
:1008A000280F311D8091DE02820F932F911D992711
:1008B0004817190681F681E08093EC0226CF81600B
:1008C000DCCFCF92DF92EF92FF920E945B038823EE
:1008D00049F08091E1028B3028F08D3040F0855155
:1008E000823030F160E070E080EC9FE71CC06091E6
:1008F000DC0270E090E080E00E94FE0F2DEC3CEC0A
:100900004CEC5DE30E945D106B017C016091DB02A9
:1009100070E090E080E00E94FE0F9B01AC01C701F7
:10092000B6010E94B911FF90EF90DF90CF9008952B
:100930006091DB027091DC0276276727762790E0D2
:1009400080E00E94FC0F2DEC3CEC4CEC5DE30E943F
:100950005D10E9CF0F931F930E944F0360933702FE
:10096000709338028093390290933A028FE292E0BA
:100970000E949F0197FF1DC00E944F030091370204
:10098000109138022091390230913A02601B710BAC
:10099000820B930B009133021091340220913502A7
:1009A000309136026017710782079307F8F28FEFD4
:1009B0009FEF1F910F9108958F929F92AF92BF92D8
:1009C000FF920F931F93CF93DF93FC01F0808BE096
:1009D0008F1508F44AC0828108E512E0081B11094E
:1009E00087FD1395000F111F000F111F8181C8E8AB
:1009F000D0E0C81BD10987FDD395CC0FDD1FCC0FEC
:100A0000DD1F4E010D2E000CAA08BB089801012E17
:100A1000000C440B550B281939094A095B09DB0105
:100A20000E94481124EB30E040E050E00E941E118B
:100A3000820E931EA41EB51E8C169D062CF0E80196
:100A4000801691060CF4E4012297CC0FDD1F2FB71E
:100A5000F8948F2D90E0FC01EE0FFF1FE80FF91FB7
:100A6000EE50FE4FD283C1832FBFDF91CF911F91F4
:100A70000F91FF90BF90AF909F908F9008951F931C
:100A8000CF93DF93EC01162F88818C3008F04EC095
:100A900061E0812F0E94BC028881282F30E0F9019B
:100AA000EE0FFF1FE20FF31FEE50FE4F1F7360812A
:100AB000607C612B608319821A822CE0622F0E9475
:100AC0006012829FB001112430E020E0AB01420FA0
:100AD000531FFA01EE0FFF1FE40FF51FEE50FE4FFC
:100AE000908196FD16C02F5F3F4F2C30310571F776
:100AF00081110FC01092800082E0809381001092DB
:100B0000850010928400B19A80916F00826080937A
:100B10006F00E8818E2F90E0FC01EE0FFF1FE80FC1
:100B2000F91FEE50FE4F8081806480838881DF91C1
:100B3000CF911F910895CF93DF93EC018881998124
:100B4000DC01ED91FC910190F081E02D09952A8165
:100B50003B81820F931F9B838A83DF91CF910895FE
:100B6000CF93DF93EC0188819981DC01ED91FC91B9
:100B70000280F381E02D09952A813B81820F931F2A
:100B80009B838A83DF91CF910895EF92FF920F9319
:100B90001F93CF93DF93CDB7DEB766970FB6F89468
:100BA000DEBF0FBECDBF8C01CB01FE0177969F014A
:100BB0004AE0E42EF12CB7010E946C12805D829312
:100BC000CB010097C1F7A9014E1B5F0BBF01C80104
:100BD0000E94B00566960FB6F894DEBF0FBECDBF7B
:100BE000DF91CF911F910F91FF90EF9008958F9219
:100BF0009F92AF92BF92CF92DF92EF92FF920F93AC
:100C00001F93CF93DF93CDB7DEB766970FB6F894F7
:100C1000DEBF0FBECDBF6C018E01095E1F4F780194
:100C20008AE0882E912CA12CB12CCB01BA01A50110
:100C300094010E948711942F852F605DF8016293C3
:100C40008F01A901692F782F4115510561057105A3
:100C500061F7A7014E1B5F0BBF01C6010E94B005E3
:100C600066960FB6F894DEBF0FBECDBFDF91CF9171
:100C70001F910F91FF90EF90DF90CF90BF90AF90BA
:100C80009F908F900895EF92FF920F931F93CF93B1
:100C9000DF93EC017B0162E20E949B058701F80172
:100CA00061918F01662391F0E8E1F1E0F280FF208D
:100CB00049F0329681816813F9CF6CE5CE010E942C
:100CC0009B056F2DCE010E949B05E9CF62E2CE010C
:100CD000DF91CF911F910F91FF90EF900C949B05A6
:100CE000FC012581222339F0F8E02F029001112424
:100CF000820F931F089590E080E00895CF93DF93D3
:100D000050E040E068E271E08FE292E00E9463010F
:100D1000EC0142E050E069E271E08FE292E00E9473
:100D200063018C0F9D1FDF91CF910895FB0101900E
:100D30000020E9F73197AF01461B570B0C94B00523
:100D40002F923F924F925F926F927F928F929F92DB
:100D5000AF92BF92CF92DF92EF92FF920F931F93C9
:100D6000CF93DF93CDB7DEB766970FB6F894DEBFAB
:100D70000FBECDBF8C011B01DC0114968C91149722
:100D80008F77863009F463C278F48230B0F0843013
:100D900008F044C212964D915C9113976D917C912D
:100DA000C1010E94B00536C28C3069F160F4883010
:100DB00009F448C28A3009F437C26CE271E0C1011B
:100DC0000E94960627C2803209F4FCC18034A9F73C
:100DD0006BE5C1010E949B05F8010081118101159D
:100DE000110509F4EAC1B101C8010E94A006C801B9
:100DF0000E9470068C01892B09F4DFC16CE2C101ED
:100E00000E949B05ECCFF801C080D180E280F38086
:100E1000A7019601C701B6010E94F70F882331F0A0
:100E20006CE271E0C1010E9496069FC120E030E0B3
:100E3000A901C701B6010E94F70F882371F0A7012D
:100E40009601C701B6010E94B9119B01AC01C7010F
:100E5000B6010E94F70F882319F320E030E0A901C2
:100E6000C701B6010E94F70F87FF08C06DE2C101FC
:100E70000E949B05F7FAF094F7F8F09420E836E921
:100E800048E15BE4C701B6010E945B1287FD81C0A7
:100E900064E1A62EB12C00E210E01A8A198AF5014D
:100EA000E856FF4F2591359145915491C701B60100
:100EB0000E945B1287FD13C0F501E859FF4F259191
:100EC000359145915491C701B6010E945D106B01A7
:100ED0007C0129893A89200F311F3A8B298B15957E
:100EE000079534E0A31AB1088CEFA8168FEFB80667
:100EF000B1F655245A9420E030E0A901C701B601AB
:100F00000E945B1218160CF04BC02CEA35EC47E23D
:100F100057E3C701B6010E94F70F18160CF440C042
:100F2000A52DB4E0AB02C0011124B12CA12CFC0111
:100F3000E058FF4F3F019C0128563F4F49013FEFCA
:100F4000531671F1F301EA0DFB1D659175918591C1
:100F50009491A70196010E945B1218169CF4F4016B
:100F6000EA0DFB1D2591359145915491C701B601BC
:100F70000E945D106B017C0189899A89801B910B0D
:100F80009A8B898B159507955A9494E0A91AB10804
:100F9000D6CF00E210E045E0542E1A8A198AABCF72
:100FA000C701B6010E942C124B015C012B013C01D0
:100FB00006E080E492E4AFE0B0E08B8B9C8BAD8BDD
:100FC000BE8B102F01509AE0491651046104710440
:100FD000C8F06B897C898D899E892AE030E040E0E9
:100FE00050E00E9487112B8B3C8B4D8B5E8BC30195
:100FF000B2012AE030E040E050E00E948711290170
:101000003A01DFCFC501B4010E94FC0F9B01AC0186
:10101000C701B6010E94B8116B017C016B897C8904
:101020008D899E890E94FC0F9B01AC01C701B6010E
:101030000E945D102B013C010E942C126B017C016F
:101040000E94FC0F9B01AC01C301B2010E94B811C8
:101050009B01AC010E94B9110E942C12C60ED71E32
:10106000E81EF91E8B899C89AD89BE89C816D906F0
:10107000EA06FB06D8F09FEF891A990AA90AB90A6D
:10108000A989BA89AB2B39F1BAE08B169104A10476
:10109000B10408F1E989FA893196FA8BE98BC12C00
:1010A000D12C7601812C912C540183949AE0492E05
:1010B000512C612C712CC701B601A30192010E9431
:1010C0008711672B682B692B51F4111644F46901C1
:1010D0007A011150F0CFC12CD12C7601E7CFB501A8
:1010E000A401C1010E94F705112371F14E01F1E144
:1010F0008F0E911C012F54018AE0482E512C612C37
:10110000712C015068F0C701B601A30192010E9441
:101110008711605DD4016E934D0169017A01F1CFB1
:10112000812F90E0BC0160957095F501E81BF90BEB
:1011300031978EE2808344275527461B570B6A0D53
:101140007B1DC1010E94B005E989FA89F7FF2AC019
:1011500061E371E0C1010E94960669897A897195FF
:1011600061957109C1010E94C505D10112968D9149
:101170009C9166960FB6F894DEBF0FBECDBFDF918F
:10118000CF911F910F91FF90EF90DF90CF90BF9084
:10119000AF909F908F907F906F905F904F903F9017
:1011A0002F90089529893A89232BF9F265E6C10128
:1011B0000E949B0569897A89D5CF6DE5C1010E949E
:1011C0009B05D3CF6BE7C1010E949B05F80100810D
:1011D000118101151105D1F0D80116966D917C9100
:1011E000C1010E9443066AE3C1010E949B05B1014F
:1011F000C8010E94A006C8010E9470068C01892BBC
:1012000029F06CE2C1010E949B05E3CF6DE7C101AB
:101210000E949B05F10182819381ABCF6D917C91FE
:10122000C1010E944306F6CFCD90DD90ED90FC9079
:101230006DE2C1010E949B05B701A601C1010E9498
:10124000F705E8CF4D915D916D917C91F7CFF80155
:1012500080819181A281B38163EB71E0892B8A2B1C
:101260008B2B09F0DFCD6EEB71E0DCCD2091D0024D
:101270003091D102232B39F421E0FC0180818823B5
:1012800061F020E00AC0BC018091CC029091CD02B7
:101290000E94851421E0892BA1F7822F08950F93D6
:1012A0001F93CF93DF93CDB7DEB7CC5DD1090FB6D7
:1012B000F894DEBF0FBECDBF8B019E01215F3F4F73
:1012C0003A8329833C832B83DE01A952BF4FB88721
:1012D000AF8319862E85207820622E87FE01E15388
:1012E000FF4FFE83ED83FB87EA87FD87EC87CC52B7
:1012F000DF4F1882C45DD040CB52DF4F9983888383
:10130000C55DD040AB01770F660B770B17FD24C08E
:1013100088E0CD52DF4F8883C35DD0404083518346
:10132000628373838FE292E011969C938E9313965F
:101330001C921E921297BD01CE010A960E94A00631
:10134000C452DF4F0FB6F894DEBF0FBECDBFDF91A2
:10135000CF911F910F9108958AE0CD52DF4F88837E
:10136000C35DD04070956095509541955F4F6F4F2C
:101370007F4FD4CF0F931F93CF93DF93EC018881DE
:101380009981009759F02A813B812617370730F061
:1013900081E0DF91CF911F910F9108958B016F5FD5
:1013A0007F4F0E94BF13009759F0998388831B8356
:1013B0000A832C813D81232B59F7FC011082E8CF51
:1013C00080E0E7CF0F931F93CF93DF93182FEB01AC
:1013D00060E00E9470028BE090E00197F1F761E01D
:1013E000812F0E94700283E290E00197F1F760E0A4
:1013F000812F0E947002DD27FE01EA50FF4F6491A9
:10140000FE01EE51FF4FE491F0E0EE0FFF1FE852B6
:10141000FF4F8591949100E412E42FE030E0462FD5
:101420000E94860B611571058105910529F06F5F9A
:101430007F4F8F4F9F4F9F7028E432E040E050E095
:101440000E941E11C901DF91CF911F910F91089544
:101450001F920F920FB60F9211242F933F934F9329
:101460005F936F937F938F939F93AF93BF93EF930C
:10147000FF938FE292E00E94E101FF91EF91BF9113
:10148000AF919F918F917F916F915F914F913F911C
:101490002F910F900FBE0F901F9018951F920F92D3
:1014A0000FB60F9211242F938F939F93EF93FF9377
:1014B000E0913F02F09140028081E0914502F0917D
:1014C000460282FD1BC09081809148028F5F8F731E
:1014D00020914902821741F0E0914802F0E0E15D7D
:1014E000FD4F958F80934802FF91EF919F918F91CF
:1014F0002F910F900FBE0F901F9018958081F4CF01
:101500001F920F920FB60F9211242F933F938F9338
:101510009F93AF93BF938091170290911802A0916F
:101520001902B0911A023091160223E0230F2D37D1
:1015300058F50196A11DB11D209316028093170244
:1015400090931802A0931902B0931A0280911B0283
:1015500090911C02A0911D02B0911E020196A11D46
:10156000B11D80931B0290931C02A0931D02B093A7
:101570001E02BF91AF919F918F913F912F910F903C
:101580000FBE0F901F90189526E8230F0296A11DFD
:10159000B11DD2CF1F920F920FB60F9211242F932D
:1015A0003F934F935F936F937F938F939F93AF93EB
:1015B000BF93CF93DF93EF93FF938091F001C0919E
:1015C000F101D0E087FF24C01092850010928400C2
:1015D0008091F0018F5F8093F0018091F001082EDF
:1015E000000C990B8C179D0724F48091F0018C302E
:1015F000C4F18091840090918500049680349C49C8
:1016000008F47AC08091840090918500049676C099
:101610008091F001082E000C990B8C179D07C4F6E1
:10162000E091F0018E2FEE0F990BFC01EE0FFF1FE2
:10163000E80FF91FEE50FE4F808186FFC9CFE09181
:10164000F0018E2FEE0F990BFC01EE0FFF1FE80F3C
:10165000F91FEE50FE4F808160E08F730E94700290
:10166000B7CF2091840030918500E091F0018E2F5A
:10167000EE0F990BFC01EE0FFF1FE80FF91FEE5064
:10168000FE4F81819281820F931F909389008093F6
:101690008800E091F0018E2FEE0F990BFC01EE0F08
:1016A000FF1FE80FF91FEE50FE4F808186FF11C02B
:1016B000E091F0018E2FEE0F990BFC01EE0FFF1F52
:1016C000E80FF91FEE50FE4F808161E08F730E949A
:1016D0007002FF91EF91DF91CF91BF91AF919F91F8
:1016E0008F917F916F915F914F913F912F910F90CB
:1016F0000FBE0F901F90189580E49CE9909389008D
:10170000809388008FEF8093F001E3CFCF92DF9238
:10171000EF92FF920F931F93E82FF92F05C001500E
:1017200011092109310961F1908196239417B9F3C8
:1017300005C0015011092109310911F19081962349
:101740009413F7CFC12CD12CE12CF12C0AC08FEFD0
:10175000C81AD80AE80AF80A0C151D052E053F0517
:1017600079F080818623841791F36C2D7D2D8E2D49
:101770009F2D1F910F91FF90EF90DF90CF900895D4
:1017800060E070E080E090E01F910F91FF90EF909B
:10179000DF90CF900895FC019091F1019C3098F476
:1017A00081E0890F8093F1019083892F90E0FC0103
:1017B000EE0FFF1FE80FF91FEE50FE4F88EB9BE086
:1017C0009283818308958FEF80830895109232026F
:1017D0001092310288EE93E0A0E0B0E080933302F3
:1017E00090933402A0933502B09336028AE091E0E0
:1017F0009093300280932F0285EC90E090933C020E
:1018000080933B0284EC90E090933E0280933D02F3
:1018100080EC90E09093400280933F0281EC90E056
:10182000909342028093410282EC90E090934402B4
:101830008093430286EC90E09093460280934502A9
:10184000109248021092490210924A0210924B02E2
:1018500083E08093E0028BE08093E102E9EFF0E027
:10186000E491E093E202E5EEF0E0E491E093E3023C
:1018700080E89EE3A0E0B0E08093E8029093E90264
:10188000A093EA02B093EB0288ED92E00E94CB0BAA
:1018900085ED92E00E94CB0B82ED92E00E94CB0B93
:1018A0001092CD021092CC021092CF021092CE0272
:1018B0001092D1021092D00270E060E08CEC92E0C5
:1018C0000E94BA092091CC023091CD02811113C03F
:1018D0002115310519F0C9010E9436131092CD026D
:1018E0001092CC021092D1021092D0021092CF022C
:1018F0001092CE0208951092D1021092D00268E2A6
:1019000071E0C9010C948E14CF93DF93CDB7DEB78D
:1019100028970FB6F894DEBF0FBECDBF789484B57C
:10192000826084BD84B5816084BD85B5826085BDDB
:1019300085B5816085BD80916E00816080936E0069
:10194000109281008091810082608093810080915B
:10195000810081608093810080918000816080930C
:1019600080008091B10084608093B1008091B000CC
:1019700081608093B00080917A00846080937A00C7
:1019800080917A00826080937A0080917A008160F1
:1019900080937A0080917A00806880937A00109218
:1019A000C10062E070E088ED92E00E943F056CE0CB
:1019B00070E085ED92E00E943F0564E070E082ED0A
:1019C00092E00E943F0561E085E00E94BC0261E078
:1019D00086E00E94BC0261E087E00E94BC0261E0F8
:1019E00089E00E94BC0260E088E00E94BC0261E0E5
:1019F0008BE00E94BC0260E08AE00E94BC0262E0D0
:101A00008091E0020E94BC020E944F03605D77401B
:101A1000810991096093E4027093E5028093E602E4
:101A20009093E70287E38093ED020E944F030E94A8
:101A30004F030E944F030E944F03E0913F02F09139
:101A4000400282E08083E0913B02F0913C021082F0
:101A5000E0913D02F0913E028FEC808310924702AC
:101A6000E0914302F091440286E08083E0914102DC
:101A7000F0914202808180618083E0914102F09187
:101A80004202808188608083E0914102F0914202AD
:101A9000808180688083E0914102F09142028081E0
:101AA0008F7D808364EF71E080E090E00E941D03F1
:101AB00068E070E089E090E00E94E20990932E02D5
:101AC00080932D026AE070E08BE090E00E94E209D2
:101AD0008C0190932C0280932B020E9461040E943F
:101AE00025126B0170932A02609329020E945B0306
:101AF000882309F417C10E94B1000E942512709337
:101B000028026093270220912D0230912E023093FB
:101B10002602209325021093240200932302D092E0
:101B20002202C09221027093200260931F02B90129
:101B300084E391E00E944F090E947E0660912B028F
:101B400070912C028AE391E00E944F090E947E0668
:101B50006091290270912A028FE391E00E944F095F
:101B60000E947E06609127027091280288E491E02D
:101B70000E944F090E947E0680E0A82E80E0B82EC9
:101B800068E070E089E090E00E94E20990932E0204
:101B900080932D026AE070E08BE090E00E94E20901
:101BA00090932C0280932B020E9461040E942512C4
:101BB00070932A02609329020E945B03882309F430
:101BC000B6C00E94B1000E94251270932802609353
:101BD0002702809125029091260260912D0270913A
:101BE0002E029C012A503109621773070CF4A4C01D
:101BF0000A96861797070CF49FC07093260260938D
:101C00002502809123029091240260912B02709111
:101C10002C029C012A503109621773070CF49BC0F7
:101C20000A96861797070CF496C070932402609367
:101C300023026091290270912A02809121029091E1
:101C400022026817790771F08FE391E00E944F0933
:101C50000E947E068091290290912A02909322028E
:101C600080932102609127027091280280911F02C7
:101C7000909120026817790771F088E491E00E9442
:101C80004F090E947E06809127029091280290932E
:101C9000200280931F028FE292E00E94C101181679
:101CA00019060CF030C11A8219821C821B821E8216
:101CB0001D8270E060E0CE0101960E94BA09298180
:101CC0003A81811157C02115310519F0C9010E94CF
:101CD00036131A8219821E821D821C821B820E9468
:101CE000AA0497FD4FC08A30910509F44BC08F8339
:101CF00018860D811E810F5F1F4FB801CE0101961E
:101D00000E94BA09882359F329813A818D819E81E5
:101D1000BE01695F7F4F820F931F0E948E141E8346
:101D20000D83DDCF60E070E080EC9FE7E6CE60E001
:101D300070E080EC9FE747CF84E391E00E944F0979
:101D40000E947E0680912D0290912E029093260291
:101D50008093250256CF8AE391E00E944F090E94AA
:101D60007E0680912B0290912C0290932402809306
:101D700023025FCF1E821D8268E271E0C9010E94CA
:101D80008E14ADCF8091CC029091CD02009709F4D2
:101D9000C8C069817A816115710509F4C0C040919C
:101DA000CE025091CF022D813E814217530708F495
:101DB000B6C00E948E148D819E819093D102809333
:101DC000D0021E821D8289819A81009711F00E94A3
:101DD0003613C090CC02D090CD02C114D10449F08A
:101DE0000091D0021091D10276010115110509F080
:101DF000B0C084E591E00E943609882331F06AE59D
:101E000070E088ED92E00E94DC0481E691E00E949F
:101E10003609882331F070E060E088ED92E00E949E
:101E2000DC048FE691E00E943609882331F06AE5F0
:101E300070E085ED92E00E94DC048CE791E00E9466
:101E40003609882331F070E060E085ED92E00E9471
:101E5000DC048AE891E00E943609882331F06AE5C3
:101E600070E082ED92E00E94DC0487E991E00E943C
:101E70003609882361F070E060E085EA91E00E9415
:101E80004F0970E060E082ED92E00E94DC048DEA90
:101E900091E00E943609882321F061E085E00E94EC
:101EA000700288EB91E00E943609882321F060E0FF
:101EB00085E00E94700284EC91E00E94360988233C
:101EC00021F061E086E00E9470028FEC91E00E94B8
:101ED0003609882321F060E086E00E9470028BEDD5
:101EE00091E00E943609882321F061E087E00E949A
:101EF000700285EE91E00E943609882321F060E0AF
:101F000087E00E947002A114B10409F439CE0E9446
:101F1000CD01882309F434CE0E94000031CE0E9406
:101F2000361389819A819093CD028093CC028B8164
:101F30009C819093CF028093CE028D819E8190935D
:101F4000D1028093D0021A8219821C821B8239CF5F
:101F5000740147018FEF881A980AF7018081082ED3
:101F6000000C990B0E94EE0F892B91F7015011097B
:101F70000C0D1D1DF8018081082E000C990B0E948C
:101F8000EE0F892B31F00E151F0518F001501109C5
:101F9000F1CFA8014F5F5F4F4E195F095093D102F7
:101FA0004093D002CE14DF0420F4B701C6010E9492
:101FB0007C14E091CC02F091CD028091D0029091FE
:101FC000D102E80FF91F108214CF8091CC029091BA
:101FD000CD02009711F00C943613089591110C94D2
:101FE000CA10803219F089508550C8F708950E94B0
:101FF000391008F481E00895E89409C097FB3EF495
:1020000090958095709561957F4F8F4F9F4F992345
:10201000A9F0F92F96E9BB279395F69587957795C3
:102020006795B795F111F8CFFAF4BB0F11F460FF83
:102030001BC06F5F7F4F8F4F9F4F16C0882311F0DB
:1020400096E911C0772321F09EE8872F762F05C0EF
:10205000662371F096E8862F70E060E02AF09A958A
:10206000660F771F881FDAF7880F9695879597F97F
:102070000895990F0008550FAA0BE0E8FEEF161619
:102080001706E807F907C0F012161306E407F5076C
:1020900098F0621B730B840B950B39F40A2661F0E0
:1020A000232B242B252B21F408950A2609F4A14083
:1020B000A6958FEF811D811D08950E9470100C94CC
:1020C000E4100E94D61038F00E94DD1020F0952315
:1020D00011F00C94CD100C94D31011240C94181101
:1020E0000E94F51070F3959FC1F3950F50E0551FB6
:1020F000629FF001729FBB27F00DB11D639FAA275D
:10210000F00DB11DAA1F649F6627B00DA11D661FAB
:10211000829F2227B00DA11D621F739FB00DA11DCC
:10212000621F839FA00D611D221F749F3327A00D86
:10213000611D231F849F600D211D822F762F6A2F22
:1021400011249F5750409AF0F1F088234AF0EE0F87
:10215000FF1FBB1F661F771F881F91505040A9F7B4
:102160009E3F510580F00C94CD100C9418115F3FE8
:10217000E4F3983ED4F3869577956795B795F795F0
:10218000E7959F5FC1F7FE2B880F911D9695879568
:1021900097F9089599278827089597F99F6780E808
:1021A00070E060E008959FEF80EC089500240A94A9
:1021B0001616170618060906089500240A94121622
:1021C0001306140605060895092E0394000C11F455
:1021D000882352F0BB0F40F4BF2B11F460FF04C002
:1021E0006F5F7F4F8F4F9F4F089557FD9058440F5B
:1021F000551F59F05F3F71F04795880F97FB991F66
:1022000061F09F3F79F08795089512161306140622
:10221000551FF2CF4695F1DF08C0161617061806AF
:10222000991FF1CF86957105610508940895E8948A
:10223000BB2766277727CB0197F90895052E97FBD3
:102240001EF400940E94351157FD07D00E9487119B
:1022500007FC03D04EF40C94351150954095309501
:1022600021953F4F4F4F5F4F089590958095709502
:1022700061957F4F8F4F9F4F08950E94A911A59F91
:10228000900DB49F900DA49F800D911D1124089571
:10229000B7FF0C943D110E943D11821B930B0895D2
:1022A0002F923F924F925F926F927F928F929F9266
:1022B000AF92BF92CF92DF92EF92FF920F931F9354
:1022C000CF93DF93CDB7DEB7CA1BDB0B0FB6F89405
:1022D000DEBF0FBECDBF09942A88398848885F8445
:1022E0006E847D848C849B84AA84B984C884DF80B6
:1022F000EE80FD800C811B81AA81B981CE0FD11D9A
:102300000FB6F894DEBF0FBECDBFED010895A1E278
:102310001A2EAA1BBB1BFD010DC0AA1FBB1FEE1F5F
:10232000FF1FA217B307E407F50720F0A21BB30BAA
:10233000E40BF50B661F771F881F991F1A9469F726
:1023400060957095809590959B01AC01BD01CF0182
:102350000895A29FB001B39FC001A39F700D811D7E
:102360001124911DB29F700D811D1124911D08959E
:102370005058BB27AA270E94D0110C94E4100E9449
:10238000D61038F00E94DD1020F039F49F3F19F488
:1023900026F40C94D3100EF4E095E7FB0C94CD10CA
:1023A000E92F0E94F51058F3BA17620773078407E4
:1023B000950720F079F4A6F50C9417110EF4E0952A
:1023C0000B2EBA2FA02D0B01B90190010C01CA01EF
:1023D000A0011124FF27591B99F0593F50F4503E9A
:1023E00068F11A16F040A22F232F342F4427585F8C
:1023F000F3CF469537952795A795F0405395C9F7A4
:102400007EF41F16BA0B620B730B840BBAF091505B
:10241000A1F0FF0FBB1F661F771F881FC2F70EC0FA
:10242000BA0F621F731F841F48F4879577956795CD
:10243000B795F7959E3F08F0B0CF9395880F08F0B9
:102440009927EE0F9795879508950E942C1268940E
:10245000B1110C94181108950E94FD1088F09F5737
:1024600098F0B92F9927B751B0F0E1F0660F771FB8
:10247000881F991F1AF0BA95C9F714C0B13091F0AE
:102480000E941711B1E008950C941711672F782F4F
:102490008827B85F39F0B93FCCF386957795679573
:1024A000B395D9F73EF490958095709561957F4FDF
:1024B0008F4F9F4F08950E94391008F48FEF0895B1
:1024C000991B79E004C0991F961708F0961B881F86
:1024D0007A95C9F78095089597FB072E16F4009416
:1024E00007D077FD09D00E94801207FC05D03EF48A
:1024F000909581959F4F0895709561957F4F0895B0
:10250000AA1BBB1B51E107C0AA1FBB1FA617B70719
:1025100010F0A61BB70B881F991F5A95A9F7809535
:102520009095BC01CD010895EE0FFF1F0590F49129
:10253000E02D09940F931F93CF93DF938230910581
:1025400010F482E090E0E091F002F091F10230E0CE
:1025500020E0B0E0A0E0309799F42115310509F4AE
:102560004AC0281B390B24303105D8F58A819B815C
:102570006115710589F1FB0193838283FE0111C00E
:10258000408151810281138148175907E0F04817B3
:10259000590799F4109761F012960C9312971396BD
:1025A0001C933296CF01DF91CF911F910F91089527
:1025B0000093F0021093F102F4CF2115310551F090
:1025C0004217530738F0A901DB019A01BD01DF0171
:1025D000F801C1CFEF01F9CF9093F1028093F0029F
:1025E000CDCFFE01E20FF31F819391932250310969
:1025F00039832883D7CF2091EE023091EF02232B2D
:1026000041F420910201309103013093EF022093B5
:10261000EE0220910001309101012115310541F4B4
:102620002DB73EB74091040150910501241B350B95
:10263000E091EE02F091EF02E217F307A0F42E1BF7
:102640003F0B2817390778F0AC014E5F5F4F241716
:10265000350748F04E0F5F1F5093EF024093EE0294
:10266000819391939FCFF0E0E0E09CCFCF93DF93F5
:102670000097E9F0FC01329713821282A091F002D8
:10268000B091F102ED0130E020E01097A1F420813B
:102690003181820F931F2091EE023091EF022817B3
:1026A000390709F061C0F093EF02E093EE02DF9189
:1026B000CF910895EA01CE17DF07E8F54A815B81E3
:1026C0009E0141155105B1F7E901FB83EA83499168
:1026D0005991C40FD51FEC17FD0761F480819181DA
:1026E0000296840F951FE9019983888382819381E3
:1026F0009B838A83F0E0E0E012968D919C91139782
:102700000097B9F52D913C911197CD010296820F5A
:10271000931F2091EE023091EF022817390739F606
:10272000309751F51092F1021092F002B093EF023F
:10273000A093EE02BCCFD383C28340815181840F2A
:10274000951FC817D90761F44E5F5F4F8881998143
:10275000480F591F518340838A819B8193838283D1
:102760002115310509F0B0CFF093F102E093F002AA
:102770009ECFFD01DC01C0CF13821282D7CFB0E023
:10278000A0E0E5ECF3E10C9452118C01009751F4B8
:10279000CB010E949A128C01C801CDB7DEB7E0E1EF
:1027A0000C946E11FC01E60FF71F9C0122503109B9
:1027B000E217F30708F49DC0D901CD91DC91119780
:1027C000C617D70798F0C530D10530F3CE0104976E
:1027D0008617970708F3C61BD70B2297C193D1938F
:1027E0006D937C93CF010E943613D6CF5B01AC1A58
:1027F000BD0A4C018C0E9D1EA091F002B091F10219
:10280000512C412CF12CE12C109731F58091EE02E6
:102810009091EF028815990509F05CC0461657069D
:1028200008F058C08091000190910101009741F497
:102830008DB79EB74091040150910501841B950B03
:10284000E817F90708F055C0F093EF02E093EE02A5
:10285000F90171836083A0CF8D919C91119712969D
:102860006C90129713967C901397A815B90559F59B
:102870006C0142E0C40ED11CCA14DB0420F1AC018F
:102880004A195B09DA011296159780F06282738209
:1028900051834083D9016D937C93E114F10471F06D
:1028A000D7011396FC93EE93129776CF22968C0F56
:1028B0009D1FF90191838083F301EFCFF093F10223
:1028C000E093F00269CF4816590608F42C017D0107
:1028D000D3019ACFCB010E949A127C01009749F054
:1028E000AE01B8010E947C14C8010E943613870112
:1028F00053CF10E000E050CFFB01DC0102C001909B
:102900000D9241505040D8F70895FB01DC018D91A4
:10291000019080190110D9F3990B0895FB01DC0196
:1029200001900D920020E1F7089510E0C6E8D0E094
:1029300004C0FE010E9494122196C738D107C9F73E
:10294000F894FFCF0000F2028000000000000302B4
:10295000630190015002C1019F01B3012F2F222278
:102960005C5C6208660C6E0A720D7409000D0A0048
:102970006E756C6C00652D00776174657200666F12
:102980006F640068756D69646974790074656D7051
:10299000657261747572650077696E646F77312D49
:1029A000747275650077696E646F77312D66616C3E
:1029B00073650077696E646F77322D747275650088
:1029C00077696E646F77322D66616C736500776925
:1029D0006E646F77332D747275650077696E646FFE
:1029E00077332D66616C73650077696E646F77333A
:1029F00000646F6F72312D7472756500646F6F7251
:102A0000312D66616C736500646F6F72322D747264
:102A1000756500646F6F72322D66616C736500625C
:102A2000656C742D747275650062656C742D6661D9
:042A30006C7365005E
:107E0000112484B714BE81FFF0D085E080938100F7
:107E100082E08093C00088E18093C10086E0809377
:107E2000C20080E18093C4008EE0C9D0259A86E02C
:107E300020E33CEF91E0309385002093840096BBD3
:107E4000B09BFECF1D9AA8958150A9F7CC24DD24C4
:107E500088248394B5E0AB2EA1E19A2EF3E0BF2EE7
:107E6000A2D0813461F49FD0082FAFD0023811F036
:107E7000013811F484E001C083E08DD089C08234E0
:107E800011F484E103C0853419F485E0A6D080C0E4
:107E9000853579F488D0E82EFF2485D0082F10E0AE
:107EA000102F00270E291F29000F111F8ED06801E7
:107EB0006FC0863521F484E090D080E0DECF843638
:107EC00009F040C070D06FD0082F6DD080E0C81688
:107ED00080E7D80618F4F601B7BEE895C0E0D1E017
:107EE00062D089930C17E1F7F0E0CF16F0E7DF06D8
:107EF00018F0F601B7BEE89568D007B600FCFDCFD4
:107F0000A601A0E0B1E02C9130E011968C91119780
:107F100090E0982F8827822B932B1296FA010C0160
:107F200087BEE89511244E5F5F4FF1E0A038BF0790
:107F300051F7F601A7BEE89507B600FCFDCF97BE46
:107F4000E89526C08437B1F42ED02DD0F82E2BD052
:107F50003CD0F601EF2C8F010F5F1F4F84911BD097
:107F6000EA94F801C1F70894C11CD11CFA94CF0C13
:107F7000D11C0EC0853739F428D08EE10CD085E9AC
:107F80000AD08FE07ACF813511F488E018D01DD067
:107F900080E101D065CF982F8091C00085FFFCCF94
:107FA0009093C60008958091C00087FFFCCF809118
:107FB000C00084FD01C0A8958091C6000895E0E648
:107FC000F0E098E1908380830895EDDF803219F02E
:107FD00088E0F5DFFFCF84E1DECF1F93182FE3DFCA
:107FE0001150E9F7F2DF1F91089580E0E8DFEE27F6
:047FF000FF270994CA
:027FFE00040479
:00000001FF
